{
    "contractName": "ERC20Token",
    "abi": [
        {
            "inputs": [],
            "stateMutability": "nonpayable",
            "type": "constructor"
        },
        {
            "anonymous": false,
            "inputs": [
                {
                    "indexed": true,
                    "internalType": "address",
                    "name": "owner",
                    "type": "address"
                },
                {
                    "indexed": true,
                    "internalType": "address",
                    "name": "spender",
                    "type": "address"
                },
                {
                    "indexed": false,
                    "internalType": "uint256",
                    "name": "value",
                    "type": "uint256"
                }
            ],
            "name": "Approval",
            "type": "event"
        },
        {
            "anonymous": false,
            "inputs": [
                {
                    "indexed": true,
                    "internalType": "address",
                    "name": "from",
                    "type": "address"
                },
                {
                    "indexed": true,
                    "internalType": "address",
                    "name": "to",
                    "type": "address"
                },
                {
                    "indexed": false,
                    "internalType": "uint256",
                    "name": "value",
                    "type": "uint256"
                }
            ],
            "name": "Transfer",
            "type": "event"
        },
        {
            "inputs": [
                {
                    "internalType": "address",
                    "name": "",
                    "type": "address"
                },
                {
                    "internalType": "address",
                    "name": "",
                    "type": "address"
                }
            ],
            "name": "allowed",
            "outputs": [
                {
                    "internalType": "uint256",
                    "name": "",
                    "type": "uint256"
                }
            ],
            "stateMutability": "view",
            "type": "function"
        },
        {
            "inputs": [
                {
                    "internalType": "address",
                    "name": "spender",
                    "type": "address"
                },
                {
                    "internalType": "uint256",
                    "name": "amount",
                    "type": "uint256"
                }
            ],
            "name": "approve",
            "outputs": [
                {
                    "internalType": "bool",
                    "name": "",
                    "type": "bool"
                }
            ],
            "stateMutability": "nonpayable",
            "type": "function"
        },
        {
            "inputs": [
                {
                    "internalType": "address",
                    "name": "account",
                    "type": "address"
                }
            ],
            "name": "balanceOf",
            "outputs": [
                {
                    "internalType": "uint256",
                    "name": "",
                    "type": "uint256"
                }
            ],
            "stateMutability": "view",
            "type": "function"
        },
        {
            "inputs": [
                {
                    "internalType": "address",
                    "name": "",
                    "type": "address"
                }
            ],
            "name": "balances",
            "outputs": [
                {
                    "internalType": "uint256",
                    "name": "",
                    "type": "uint256"
                }
            ],
            "stateMutability": "view",
            "type": "function"
        },
        {
            "inputs": [],
            "name": "decimals",
            "outputs": [
                {
                    "internalType": "uint8",
                    "name": "",
                    "type": "uint8"
                }
            ],
            "stateMutability": "view",
            "type": "function"
        },
        {
            "inputs": [],
            "name": "name",
            "outputs": [
                {
                    "internalType": "string",
                    "name": "",
                    "type": "string"
                }
            ],
            "stateMutability": "view",
            "type": "function"
        },
        {
            "inputs": [],
            "name": "symbol",
            "outputs": [
                {
                    "internalType": "string",
                    "name": "",
                    "type": "string"
                }
            ],
            "stateMutability": "view",
            "type": "function"
        },
        {
            "inputs": [],
            "name": "totalSupply",
            "outputs": [
                {
                    "internalType": "uint256",
                    "name": "",
                    "type": "uint256"
                }
            ],
            "stateMutability": "view",
            "type": "function"
        },
        {
            "inputs": [
                {
                    "internalType": "address",
                    "name": "recipient",
                    "type": "address"
                },
                {
                    "internalType": "uint256",
                    "name": "amount",
                    "type": "uint256"
                }
            ],
            "name": "transfer",
            "outputs": [
                {
                    "internalType": "bool",
                    "name": "",
                    "type": "bool"
                }
            ],
            "stateMutability": "nonpayable",
            "type": "function"
        },
        {
            "inputs": [
                {
                    "internalType": "address",
                    "name": "sender",
                    "type": "address"
                },
                {
                    "internalType": "address",
                    "name": "recipient",
                    "type": "address"
                },
                {
                    "internalType": "uint256",
                    "name": "amount",
                    "type": "uint256"
                }
            ],
            "name": "transferFrom",
            "outputs": [
                {
                    "internalType": "bool",
                    "name": "",
                    "type": "bool"
                }
            ],
            "stateMutability": "nonpayable",
            "type": "function"
        }
    ],
    "bytecode": "60806040523480156200001157600080fd5b506000606080826200002581600a62000198565b620000319085620001ad565b6003819055336000908152600460205260408120919091556200005584826200026c565b5060016200006483826200026c565b506002805460ff191660ff929092169190911790555062000338915050565b634e487b7160e01b600052601160045260246000fd5b600181815b80851115620000da578160001904821115620000be57620000be62000083565b80851615620000cc57918102915b93841c93908002906200009e565b509250929050565b600082620000f35750600162000192565b81620001025750600062000192565b81600181146200011b5760028114620001265762000146565b600191505062000192565b60ff8411156200013a576200013a62000083565b50506001821b62000192565b5060208310610133831016604e8410600b84101617156200016b575081810a62000192565b62000177838362000099565b80600019048211156200018e576200018e62000083565b0290505b92915050565b6000620001a68383620000e2565b9392505050565b808202811582820484141762000192576200019262000083565b634e487b7160e01b600052604160045260246000fd5b600181811c90821680620001f257607f821691505b6020821081036200021357634e487b7160e01b600052602260045260246000fd5b50919050565b601f8211156200026757600081815260208120601f850160051c81016020861015620002425750805b601f850160051c820191505b8181101562000263578281556001016200024e565b5050505b505050565b81516001600160401b03811115620002885762000288620001c7565b620002a081620002998454620001dd565b8462000219565b602080601f831160018114620002d85760008415620002bf5750858301515b600019600386901b1c1916600185901b17855562000263565b600085815260208120601f198616915b828110156200030957888601518255948401946001909101908401620002e8565b5085821015620003285787850151600019600388901b60f8161c191681555b5050505050600190811b01905550565b6107f780620003486000396000f3fe608060405234801561001057600080fd5b506004361061009e5760003560e01c8063313ce56711610066578063313ce5671461012e5780635c6581651461014d57806370a082311461017857806395d89b41146101a1578063a9059cbb146101a957600080fd5b806306fdde03146100a3578063095ea7b3146100c157806318160ddd146100e457806323b872dd146100fb57806327e235e31461010e575b600080fd5b6100ab6101bc565b6040516100b89190610626565b60405180910390f35b6100d46100cf366004610690565b61024a565b60405190151581526020016100b8565b6100ed60035481565b6040519081526020016100b8565b6100d46101093660046106ba565b6102b7565b6100ed61011c3660046106f6565b60046020526000908152604090205481565b60025461013b9060ff1681565b60405160ff90911681526020016100b8565b6100ed61015b366004610718565b600560209081526000928352604080842090915290825290205481565b6100ed6101863660046106f6565b6001600160a01b031660009081526004602052604090205490565b6100ab6104d7565b6100d46101b7366004610690565b6104e4565b600080546101c99061074b565b80601f01602080910402602001604051908101604052809291908181526020018280546101f59061074b565b80156102425780601f1061021757610100808354040283529160200191610242565b820191906000526020600020905b81548152906001019060200180831161022557829003601f168201915b505050505081565b3360008181526005602090815260408083206001600160a01b038716808552925280832085905551919290917f8c5be1e5ebec7d5bd14f71427d1e84f3dd0314c0f7b2291e5b200ac8c7c3b925906102a59086815260200190565b60405180910390a35060015b92915050565b6001600160a01b03831660009081526004602052604081205482111561031c5760405162461bcd60e51b815260206004820152601560248201527424b739bab33334b1b4b2b73a103130b630b731b29760591b60448201526064015b60405180910390fd5b6001600160a01b03831660009081526004602052604090205461033f838261079b565b10156103795760405162461bcd60e51b815260206004820152600960248201526827bb32b9333637bb9760b91b6044820152606401610313565b6001600160a01b03841660009081526005602090815260408083203384529091529020548211156103ec5760405162461bcd60e51b815260206004820152601760248201527f416c6c6f77616e636520696e73756666696369656e742e0000000000000000006044820152606401610313565b6001600160a01b038416600090815260046020526040812080548492906104149084906107ae565b90915550506001600160a01b0383166000908152600460205260408120805484929061044190849061079b565b90915550506001600160a01b0384166000908152600560209081526040808320338452909152812080548492906104799084906107ae565b92505081905550826001600160a01b0316846001600160a01b03167fddf252ad1be2c89b69c2b068fc378daa952ba7f163c4a11628f55a4df523b3ef846040516104c591815260200190565b60405180910390a35060019392505050565b600180546101c99061074b565b3360009081526004602052604081205482111561053b5760405162461bcd60e51b815260206004820152601560248201527424b739bab33334b1b4b2b73a103130b630b731b29760591b6044820152606401610313565b6001600160a01b03831660009081526004602052604090205461055e838261079b565b10156105985760405162461bcd60e51b815260206004820152600960248201526827bb32b9333637bb9760b91b6044820152606401610313565b33600090815260046020526040812080548492906105b79084906107ae565b90915550506001600160a01b038316600090815260046020526040812080548492906105e490849061079b565b90915550506040518281526001600160a01b0384169033907fddf252ad1be2c89b69c2b068fc378daa952ba7f163c4a11628f55a4df523b3ef906020016102a5565b600060208083528351808285015260005b8181101561065357858101830151858201604001528201610637565b506000604082860101526040601f19601f8301168501019250505092915050565b80356001600160a01b038116811461068b57600080fd5b919050565b600080604083850312156106a357600080fd5b6106ac83610674565b946020939093013593505050565b6000806000606084860312156106cf57600080fd5b6106d884610674565b92506106e660208501610674565b9150604084013590509250925092565b60006020828403121561070857600080fd5b61071182610674565b9392505050565b6000806040838503121561072b57600080fd5b61073483610674565b915061074260208401610674565b90509250929050565b600181811c9082168061075f57607f821691505b60208210810361077f57634e487b7160e01b600052602260045260246000fd5b50919050565b634e487b7160e01b600052601160045260246000fd5b808201808211156102b1576102b1610785565b818103818111156102b1576102b161078556fea2646970667358221220974cf033f4954954ed779486524965c6343379c097dd4c425252f720214e87ea64736f6c63430008130033",
    "sourcePath": "c:/Users/Frost/scaffold-eth/scaffold-eth-v2/se-2/packages/hardhat/contracts/YourContract.sol",
    "compiler": {
        "name": "solc",
        "version": "0.8.19+commit.7dd6d404"
    },
    "functionHashes": {
        "allowed(address,address)": "5c658165",
        "approve(address,uint256)": "095ea7b3",
        "balanceOf(address)": "70a08231",
        "balances(address)": "27e235e3",
        "decimals()": "313ce567",
        "name()": "06fdde03",
        "symbol()": "95d89b41",
        "totalSupply()": "18160ddd",
        "transfer(address,uint256)": "a9059cbb",
        "transferFrom(address,address,uint256)": "23b872dd"
    },
    "gasEstimates": {
        "creation": {
            "codeDepositCost": "407800",
            "executionCost": "infinite",
            "totalCost": "infinite"
        },
        "external": {
            "allowed(address,address)": "infinite",
            "approve(address,uint256)": "24523",
            "balanceOf(address)": "2581",
            "balances(address)": "2608",
            "decimals()": "2313",
            "name()": "infinite",
            "symbol()": "infinite",
            "totalSupply()": "2340",
            "transfer(address,uint256)": "infinite",
            "transferFrom(address,address,uint256)": "infinite"
        }
    }
}